:100000000C9462000C948A000C948A000C948A0070
:100010000C948A000C948A000C948A000C948A0038
:100020000C948A000C948A000C948A000C948A0028
:100030000C948A000C948A000C948A000C948A0018
:100040000C94D7020C948A000C94A5020C947F02A5
:100050000C948A000C948A000C948A000C948A00F8
:100060000C948A000C948A000000000024002700F1
:100070002A0000000000250028002B0000000008D6
:10008000000201000003040700000000000000005F
:1000900000000000230026002900040404040404D6
:1000A0000404020202020202030303030303010227
:1000B00004081020408001020408102001020408F6
:1000C0001020700411241FBECFEFD8E0DEBFCDBFDB
:1000D00011E0A0E0B1E0E0ECFBE002C005900D9281
:1000E000A231B107D9F721E0A2E1B1E001C01D9230
:1000F000A83BB207E1F710E0C2E6D0E004C02197C8
:10010000FE010E94D305C136D107C9F70E946603DC
:100110000C94DE050C940000CF92DF92EF92FF92D8
:100120000F931F93CF93DF936C017A018B01C0E093
:10013000D0E0CE15DF0589F0D8016D918D01D60193
:10014000ED91FC910190F081E02DC6010995892B7C
:1001500011F47E0102C02196ECCFC701DF91CF914F
:100160001F910F91FF90EF90DF90CF900895089529
:1001700080E090E00895FC01538D448D252F30E000
:10018000842F90E0821B930B541710F0CF960895A4
:1001900001970895FC01918D828D981761F0828DF1
:1001A000DF01A80FB11D5D968C91928D9F5F9F73AB
:1001B000928F90E008958FEF9FEF0895FC01918D4D
:1001C000828D981731F0828DE80FF11D858D90E0BA
:1001D00008958FEF9FEF0895FC01918D228D892F57
:1001E00090E0805C9F4F821B91098F73992708953F
:1001F0008BE191E00E94EC0021E0892B09F420E0E2
:10020000822F0895FC01848DDF01A80FB11DA35A30
:10021000BF4F2C91848D90E001968F739927848F26
:10022000A689B7892C93A089B1898C9180648C931D
:10023000938D848D981306C00288F389E02D808108
:100240008F7D80830895EF92FF920F931F93CF933A
:10025000DF93EC0181E0888F9B8D8C8D981305C016
:10026000E889F989808185FD24C0F62E0B8D10E088
:100270000F5F1F4F0F731127E02E8C8DE8120CC0FB
:100280000FB607FCFACFE889F989808185FFF5CFA1
:10029000CE010E940201F1CF8B8DFE01E80FF11D0E
:1002A000E35AFF4FF0820B8FEA89FB8980818062DD
:1002B00007C0EE89FF896083E889F98980818064BD
:1002C000808381E090E0DF91CF911F910F91FF90AB
:1002D000EF900895CF93DF93EC01888D8823C9F0C8
:1002E000EA89FB89808185FD05C0A889B9898C913F
:1002F00086FD0FC00FB607FCF5CF808185FFF2CFDA
:10030000A889B9898C9185FFEDCFCE010E940201A9
:10031000E7CFDF91CF91089580E090E0892B29F01D
:100320000E94F80081110C940000089590E0FC01F7
:10033000E458FF4F3491FC01E255FF4F2491FC013A
:10034000E656FF4FE491EE2309F43BC0332339F125
:10035000333091F038F43130A9F0323001F584B502
:100360008F7D12C0373091F03830A1F03430B9F4BD
:10037000809180008F7D03C0809180008F77809373
:1003800080000DC084B58F7784BD09C08091B00016
:100390008F7703C08091B0008F7D8093B000F0E034
:1003A000EE0FFF1FEE58FF4FA591B4918FB7F89451
:1003B000EC91611103C020952E2301C02E2B2C93AC
:1003C0008FBF0895CF93DF9390E0FC01E255FF4F7C
:1003D0002491FC01E656FF4F8491882361F190E05F
:1003E000880F991FFC01E859FF4FC591D491FC017A
:1003F000EE58FF4FA591B491611109C09FB7F894D1
:100400008881209582238883EC912E230BC0623053
:1004100061F49FB7F8943881822F80958323888375
:10042000EC912E2B2C939FBF06C08FB7F894E881D8
:100430002E2B28838FBFDF91CF9108953FB7F8947B
:100440008091170190911801A0911901B0911A01A2
:1004500026B5A89B05C02F3F19F00196A11DB11D1F
:100460003FBFBA2FA92F982F8827820F911DA11D5A
:10047000B11DBC01CD0142E0660F771F881F991F97
:100480004A95D1F708958F929F92AF92BF92CF92E3
:10049000DF92EF92FF926B017C010E941E024B01E2
:1004A0005C01C114D104E104F104F1F00E941E02C8
:1004B000DC01CB0188199909AA09BB09883E934040
:1004C000A105B10570F321E0C21AD108E108F108D5
:1004D00088EE880E83E0981EA11CB11CC114D104C3
:1004E000E104F10419F7DDCFFF90EF90DF90CF909A
:1004F000BF90AF909F908F9008950E94D9051F9252
:100500000F920FB60F9211242F933F934F935F9347
:100510006F937F938F939F93AF93BF93EF93FF93CB
:100520008BE191E00E940201FF91EF91BF91AF91A9
:100530009F918F917F916F915F914F913F912F91FB
:100540000F900FBE0F901F9018951F920F920FB62D
:100550000F9211242F938F939F93EF93FF93E0912A
:100560002B01F0912C018081E0913101F091320159
:1005700082FD12C09081809134018F5F8F73209132
:100580003501821751F0E0913401F0E0E55EFE4F55
:10059000958F8093340101C08081FF91EF919F91ED
:1005A0008F912F910F900FBE0F901F9018951F9253
:1005B0000F920FB60F9211242F933F938F939F9317
:1005C000AF93BF938091130190911401A0911501F5
:1005D000B09116013091120123E0230F2D3720F442
:1005E0000196A11DB11D05C026E8230F0296A11D8D
:1005F000B11D209312018093130190931401A093D5
:100600001501B09316018091170190911801A091E6
:100610001901B0911A010196A11DB11D8093170116
:1006200090931801A0931901B0931A01BF91AF9153
:100630009F918F913F912F910F900FBE0F901F9020
:100640001895CF92DF92EF92FF920F931F93E82FAE
:10065000F92F05C0015011092109310961F190817B
:1006600096239417B9F305C00150110921093109E6
:1006700011F1908196239413F7CFC12CD12CE12C4A
:10068000F12C0AC08FEFC81AD80AE80AF80A0C152C
:100690001D052E053F0579F080818623841791F38F
:1006A0006C2D7D2D8E2D9F2D1F910F91FF90EF9022
:1006B000DF90CF90089560E070E080E090E01F91BF
:1006C0000F91FF90EF90DF90CF900895789484B5CC
:1006D000826084BD84B5816084BD85B5826085BD3E
:1006E00085B5816085BD80916E00816080936E00CC
:1006F00010928100809181008260809381008091BE
:10070000810081608093810080918000816080936E
:1007100080008091B10084608093B1008091B0002E
:1007200081608093B00080917A00846080937A0029
:1007300080917A00826080937A0080917A00816053
:1007400080937A0080917A00806880937A0010927A
:10075000C100E0912B01F0912C0182E08083E091B7
:100760002701F09128011082E0912901F0912A01DE
:100770008FEC808310923301E0912F01F0913001D2
:1007800086E08083E0912D01F0912E0180818061CF
:100790008083E0912D01F0912E018081886080831B
:1007A000E0912D01F0912E01808180688083E0919D
:1007B0002D01F0912E0180818F7D808361E087E0A3
:1007C0000E94E20160E086E00E94E20161E08DE0CB
:1007D0000E94E20161E08CE00E94E201C4EBD0E003
:1007E00050EAE52E50E0F52E60E087E00E94960189
:1007F00062E070E080E090E00E94430261E087E008
:100800000E9496016AE070E080E090E00E9443025E
:1008100060E087E00E949601FE016491F701249157
:1008200030E0220F331F20573F4FF90185919491FB
:1008300000E412E42FE030E0462F0E94210361150E
:1008400071058105910539F0DC01CB010196A11DEF
:10085000B11DBF7003C080E090E0DC01BC01CD01A0
:1008600095958795779567950E9447052DEC3CEC0B
:1008700048EE51E40E949D040E940F056931710504
:10088000810591054CF060E08DE00E94960160E0EA
:100890008CE00E94960121C06031710581059105AF
:1008A000E4F461E08DE00E94960161E08CE00E943A
:1008B000960164E670E080E090E00E94430260E010
:1008C0008DE00E94960160E08CE00E94960164E653
:1008D00070E080E090E00E9443020E948C0184CF8F
:1008E000EBE1F1E01382128288EE93E0A0E0B0E049
:1008F00084839583A683B78384E091E0918380838A
:1009000085EC90E09587848784EC90E097878687D4
:1009100080EC90E0918B808B81EC90E0938B828BCC
:1009200082EC90E0958B848B86EC90E0978B868BA5
:10093000118E128E138E148E08950E94B1040C94A1
:1009400099050E94920558F00E948B0540F029F409
:100950005F3F29F00C94820551110C94CD050C9445
:1009600088050E94AA0568F39923B1F3552391F3F2
:10097000951B550BBB27AA2762177307840738F00E
:100980009F5F5F4F220F331F441FAA1FA9F335D06B
:100990000E2E3AF0E0E832D091505040E695001C1F
:1009A000CAF72BD0FE2F29D0660F771F881FBB1FD9
:1009B000261737074807AB07B0E809F0BB0B802DB7
:1009C000BF01FF2793585F4F3AF09E3F510578F0E3
:1009D0000C9482050C94CD055F3FE4F3983ED4F36C
:1009E000869577956795B795F7959F5FC9F7880FB7
:1009F000911D9695879597F90895E1E0660F771F09
:100A0000881FBB1F621773078407BA0720F0621B99
:100A1000730B840BBA0BEE1F88F7E09508950E94C4
:100A200016056894B1110C94CD0508950E94B20585
:100A300088F09F5798F0B92F9927B751B0F0E1F09F
:100A4000660F771F881F991F1AF0BA95C9F714C04F
:100A5000B13091F00E94CC05B1E008950C94CC0522
:100A6000672F782F8827B85F39F0B93FCCF3869588
:100A700077956795B395D9F73EF4909580957095E5
:100A800061957F4F8F4F9F4F0895E89409C097FB62
:100A90003EF490958095709561957F4F8F4F9F4F55
:100AA0009923A9F0F92F96E9BB279395F695879599
:100AB00077956795B795F111F8CFFAF4BB0F11F45C
:100AC00060FF1BC06F5F7F4F8F4F9F4F16C0882303
:100AD00011F096E911C0772321F09EE8872F762F39
:100AE00005C0662371F096E8862F70E060E02AF07A
:100AF0009A95660F771F881FDAF7880F9695879566
:100B000097F9089597F99F6780E870E060E008958D
:100B10009FEF80EC089500240A9416161706180615
:100B20000906089500240A941216130614060506F1
:100B30000895092E0394000C11F4882352F0BB0F82
:100B400040F4BF2B11F460FF04C06F5F7F4F8F4FE5
:100B50009F4F089557FD9058440F551F59F05F3F20
:100B600071F04795880F97FB991F61F09F3F79F0CF
:100B700087950895121613061406551FF2CF469551
:100B8000F1DF08C0161617061806991FF1CF8695D3
:100B90007105610508940895E894BB2766277727B7
:100BA000CB0197F90895EE0FFF1F0590F491E02D0A
:100BB000099481E090E0F8940C94DE05F894FFCF5E
:100BC0000000000023018C00BB006A01EC00CA0099
:020BD000DE0045
:00000001FF
